:100000000C9434000C9451000C9451000C94510049
:100010000C9451000C9451000C9451000C9451001C
:100020000C9451000C9451000C9451000C9451000C
:100030000C9451000C9451000C9451000C945100FC
:100040000C9451000C9451000C9430010C947701E5
:100050000C9451000C9451000C9451000C945100DC
:100060000C9451000C94510011241FBECFEFD8E026
:10007000DEBFCDBF11E0A0E0B1E0E6E2F4E002C0F7
:1000800005900D92A03BB107D9F721E0A0EBB1E0BC
:1000900001C01D92A33DB207E1F70E94A8000C9495
:1000A00011020C940000CF93DF93EC0164EA71E03D
:1000B0000E94F9010097B1F067EA71E0CE010E9459
:1000C000F901892B51F06BEA71E0CE010E94F90130
:1000D000892B31F083E090E005C081E090E002C020
:1000E00082E090E0DF91CF910895CF93DF93EC0110
:1000F0000E94DB019C01245631092D3A364218F446
:100100000E94E5001BC0CE010E9453008130910582
:1001100069F01CF4892B39F011C08230910549F047
:10012000039751F00BC00E94F80008C00E94FD0028
:1001300005C00E94170102C00E942501DF91CF91E6
:10014000089580E4809380008AE080938100089580
:100150000E9401010E94A10078940E94DA00882385
:10016000E1F30E94E000BC0187EC91E00E940202F2
:100170000E94DD0087EC91E00E947500EECFE1EC7B
:10018000F0E08081806280830895E1ECF0E080817E
:100190008F7D80830895E1ECF0E08081806880832A
:1001A0000895E1ECF0E080818F778083089580935B
:1001B000C60008958091C60108951092C601089561
:1001C0000E94D10082EB91E008959C01990F440BAD
:1001D000550B60E472E48FE090E00E94B901215079
:1001E000310930938900209388000E94CB00089544
:1001F00082E084B90E94CB00089514B80E94CB001D
:10020000089588E18093C10086E08093C20087E66C
:100210008093C40083E191E09093D2018093D10157
:100220000E94FD000E94BF000E94CB0008950E9422
:10023000FD0083E191E09093D2018093D10181E0B0
:100240008093A3010E94BF00089580E091E0909305
:10025000D2018093D1011092A3010E94BF000895A2
:100260001F920F920FB60F9211242F933F934F932B
:100270005F936F937F938F939F93AF93BF93EF930E
:10028000FF938091C6008D3071F4E091B101F0E0F0
:10029000EE54FE4F10821092B10181E08093C601AE
:1002A0000E94D10013C0883031F48091B101815097
:1002B0008093B1010BC0E091B101F0E0EE54FE4F2C
:1002C00080838091B1018F5F8093B101FF91EF91A5
:1002D000BF91AF919F918F917F916F915F914F915E
:1002E0003F912F910F900FBE0F901F9018951F9266
:1002F0000F920FB60F9211242F933F934F935F935A
:100300006F937F938F939F93AF93BF93EF93FF93DD
:100310008091D1019091D2012091B001FC01E20FB6
:10032000F11D2081222371F02091B001FC01E20F28
:10033000F11D80810E94D7008091B0018F5F809372
:10034000B00106C01092B0010E94C5000E94CB000F
:10035000FF91EF91BF91AF919F918F917F916F919D
:100360005F914F913F912F910F900FBE0F901F9073
:100370001895A1E21A2EAA1BBB1BFD010DC0AA1FD6
:10038000BB1FEE1FFF1FA217B307E407F50720F0FE
:10039000A21BB30BE40BF50B661F771F881F991F79
:1003A0001A9469F760957095809590959B01AC01C2
:1003B000BD01CF010895FC0188279927E894219178
:1003C0002032E9F3293010F02E30C8F32B3241F0FF
:1003D0002D3239F4689404C00E940902820F911DE5
:1003E000219120532A30C0F31EF4909581959F4FA0
:1003F0000895FB01DC018D91019080190110D9F362
:10040000990B0895FB01DC0101900D920020E1F7AA
:1004100008957AE0979F902D879F802D910D11244C
:060420000895F894FFCFDF
:10042600436F6D616E646F20696E76616C69646F8F
:10043600200D002047656E657261646F72206465E9
:10044600207365F1616C6573206469676974616C1A
:1004560065732070726F6772616D61626C65200DE5
:1004660020496E6772657365206672656375656E91
:1004760063696120656E74726520313030207920A1
:100486003130303030487A200D204F4E3A2070619E
:10049600726120656E63656E6465722C204F4646F8
:1004A6002070617261206170616761722C20525305
:1004B600542070617261207265696E696369617248
:1004C600200D00016F6E006F666600727374000087
:00000001FF
