S00B00005450332E7372656342
S11300000C9434000C9451000C9451000C94510045
S11300100C9451000C9451000C9451000C94510018
S11300200C9451000C9451000C9451000C94510008
S11300300C9451000C9451000C9451000C945100F8
S11300400C9451000C9451000C9453000C947E00B9
S11300500C9451000C9451000C9451000C945100D8
S11300600C9451000C94510011241FBECFEFD8E022
S1130070DEBFCDBF11E0A0E0B1E0E0E0F4E002C0FB
S113008005900D92AA3EB107D9F722E0AAEEB1E09D
S113009001C01D92A230B207E1F70E9452010C94F4
S11300A0FE010C9400001F920F920FB60F921124C0
S11300B08F93EF93FF938091C6008D3061F4E091AC
S11300C0EC01F0E0E351FE4F10821092EC0181E06C
S11300D0809301020BC0E091EC01F0E0E351FE4F8C
S11300E080838091EC018F5F8093EC01FF91EF910D
S11300F08F910F900FBE0F901F9018951F920F9223
S11301000FB60F9211242F933F934F935F936F93E6
S11301107F938F939F93AF93BF93EF93FF93E0915C
S1130120EB01F0E0E050FF4F8081882381F00E94D2
S11301307B01E091EB01F0E0E050FF4F80810E94F1
S113014081018091EB018F5F8093EB0118C08DE0FA
S11301500E9481018AE00E9481018091EB018F5FFE
S11301608093EB018091EA018F5F8093EA01809193
S1130170EA01833021F40E9469010E946F01FF911A
S1130180EF91BF91AF919F918F917F916F915F910B
S11301904F913F912F910F900FBE0F901F90189584
S11301A0CF93DF93CDB7DEB72B970FB6F894DEBFAE
S11301B00FBECDBF0E94750182E793E79A838983BE
S11301C084E790E09C838B838FE69EE69E838D83F9
S11301D01F828FE696E69987888786E690E09B875C
S11301E08A878DEE91E00E94CF019C01845691098B
S11301F08D3A964288F4032E000C440B550B60E0B4
S113020072E18AE790E00E94AD01215031093093F8
S113021089002093880032C0BE016F5F7F4F8DEE4E
S113022091E00E94ED01892B31F414B888EC91E03F
S11302300E94840123C0BE016B5F7F4F8DEE91E06D
S11302400E94ED01892B39F482E084B98EEC91E0AF
S11302500E94840113C0BE01685F7F4F8DEE91E060
S11302600E94ED01892B31F414B889ED91E00E94CC
S1130270840104C083EE91E00E9484010E946F0116
S11302802B960FB6F894DEBF0FBECDBFDF91CF9192
S1130290089582E084B980E48093800089E08093AB
S11302A08100089588E18093C10086E08093C200B4
S11302B087E68093C4000E9449010E946F017894EC
S11302C0809101028130E1F7109201020E94D00076
S11302D0F7CFE1ECF0E080818F7D80830895E1EC3D
S11302E0F0E08081806880830895E1ECF0E0808113
S11302F08F7780830895E0ECF0E0808185FFFDCF67
S113030008958093C6000895CF92DF92EF92FF92F2
S11303100F931F93CF93FC0120812223B1F07C0122
S11303208C01C0E00F2EF6ECCF2ED12CF02D0E94C4
S11303307B01F8019081F6019083CF5F87010C0F58
S1130340111DF80190819111F2CFCF911F910F915E
S1130350FF90EF90DF90CF900895A1E21A2EAA1B90
S1130360BB1BFD010DC0AA1FBB1FEE1FFF1FA21761
S1130370B307E407F50720F0A21BB30BE40BF50B5E
S1130380661F771F881F991F1A9469F760957095E7
S1130390809590959B01AC01BD01CF010895FC01AE
S11303A088279927E89421912032E9F3293010F025
S11303B02E30C8F32B3241F02D3239F4689404C046
S11303C00E94F601820F911D219120532A30C0F31F
S11303D01EF4909581959F4F0895FB01DC018D914A
S11303E0019080190110D9F3990B08957AE0979F31
S11303F0902D879F802D910D11240895F894FFCF9F
S11304002047656E657261646F7220646520736550
S1130410F1616C6573206469676974616C6573204C
S113042070726F6772616D61626C65200020496E45
S11304306772657365206672656375656E6369616D
S113044020656E747265203130302079203130306F
S11304503030487A2000204F4E3A2070617261207B
S1130460656E63656E6465722C204F46462070612C
S11304707261206170616761722C20525354207044
S1130480617261207265696E69636961722000003E
S11304900000000000000000000000000000000058
S11304A00000000000000000000000000000000048
S11304B00000000000000000000000000000000038
S11304C00000000000000000726573657400707223
S11304D0656E6469646F200A006170616761646FAE
S10D04E0200A0070696A61200D0013
S9030000FC
