:100000000C9434000C9451000C9451000C94510049
:100010000C9451000C9451000C9451000C9451001C
:100020000C9451000C9451000C9451000C9451000C
:100030000C9451000C9451000C9451000C945100FC
:100040000C9451000C9451000C9453000C947E00BD
:100050000C9451000C9451000C9451000C945100DC
:100060000C9451000C94510011241FBECFEFD8E026
:10007000DEBFCDBF11E0A0E0B1E0E8E2F4E002C0F5
:1000800005900D92AC3FB107D9F722E0ACEFB1E09B
:1000900001C01D92A430B207E1F70E9481010C94C7
:1000A00012020C9400001F920F920FB60F921124AF
:1000B0008F93EF93FF938091C6008D3061F4E091B0
:1000C000FE01F0E0E150FE4F10821092FE0181E04F
:1000D000809303020BC0E091FE01F0E0E150FE4F7F
:1000E00080838091FE018F5F8093FE01FF91EF91ED
:1000F0008F910F900FBE0F901F9018951F920F9227
:100100000FB60F9211242F933F934F935F936F93EA
:100110007F938F939F93AF93BF93EF93FF93E09160
:10012000FD01F0E0E050FF4F8081882381F00E94C4
:10013000B001E091FD01F0E0E050FF4F80810E94AE
:10014000B6018091FD018F5F8093FD0118C08DE0A5
:100150000E94B6018AE00E94B6018091FD018F5F86
:100160008093FD018091FC018F5F8093FC01809161
:10017000FC01833021F40E949E010E94A401FF91A2
:10018000EF91BF91AF919F918F917F916F915F910F
:100190004F913F912F910F900FBE0F901F90189588
:1001A0004423D1F0FC013081FB012081321316C0C1
:1001B000FC013196DB011196415050E04F5F5F4FDB
:1001C000480F591F04C021919D91291309C0E417BC
:1001D000F507C9F781E0089581E0089580E008956A
:1001E00080E00895DC018C9190ED980F9A3038F002
:1001F00080E0089520ED280F2A3018F014C030E078
:1002000090E0990F292F220F220F920F9053980FF1
:100210003F5FFD01E30FF11D80818111EBCF94362B
:1002200018F0892F089580E008950F931F93CF93BE
:10023000DF93CDB7DEB729970FB6F894DEBF0FBEB8
:10024000CDBF8C010E94AA0182E793E79A8389833C
:1002500084E78B838FE69EE69D838C831E828FE6E8
:1002600096E698878F8386E6898743E0B801CE01BA
:1002700001960E94D000882329F088EC91E00E942A
:10028000B90132C042E0B801CE0104960E94D0000C
:10029000882329F083ED91E00E94B90125C043E055
:1002A000B801CE0107960E94D000882329F08EED78
:1002B00091E00E94B90118C0C8010E94F200882391
:1002C00051F088EE91E00E94B901C8010E94F2004D
:1002D0000E94E20109C084EF91E00E94B901C801C7
:1002E0000E94F2000E94E2010E94A40129960FB62A
:1002F000F894DEBF0FBECDBFDF91CF911F910F915C
:10030000089588E18093C10086E08093C20087E66B
:100310008093C4000E9498017894809103028130F8
:10032000E1F7109203028FEF91E00E941501F5CFE3
:10033000E1ECF0E08081806280830895E1ECF0E000
:1003400080818F7D80830895E1ECF0E0808180687A
:1003500080830895E1ECF0E080818F7780830895B9
:10036000E0ECF0E0808185FFFDCF08958093C6002A
:100370000895CF92DF92EF92FF920F931F93CF9346
:10038000FC0120812223B1F07C018C01C0E00F2E02
:10039000F6ECCF2ED12CF02D0E94B001F801908107
:1003A000F6019083CF5F87010C0F111DF80190813A
:1003B0009111F2CFCF911F910F91FF90EF90DF90AD
:1003C000CF9008950F931F93CF93DF93C82F0E9470
:1003D000B00189E2C89F812D112482958F70805DC4
:1003E00006EC10E0F8018083C4560E94B001DDECF9
:1003F000CD9FD12D1124D695D695D69580E38D0F1E
:10040000F80180830E94B001DD0F8D2F880F880FC7
:10041000D80FCD1BC05DF801C083DF91CF911F9134
:080420000F910895F894FFCF3D
:100428002047656E657261646F722064652073652C
:10043800F1616C6573206469676974616C65732028
:1004480070726F6772616D61626C65200020496E21
:100458006772657365206672656375656E63696149
:1004680020656E747265203130302079203130304B
:100478003030487A2000204F4E3A20706172612057
:10048800656E63656E6465722C204F464620706108
:100498007261206170616761722C20525354207020
:1004A800617261207265696E69636961722000001A
:1004B8000000000000000000000000000000000034
:1004C8000000000000000000000000000000000024
:1004D8000000000000000000000000000000000014
:1004E8000000000000000000726573746561646FAD
:1004F800200A007072656E6469646F200A0061707A
:10050800616761646F200A006573206E756D65729E
:0C0518006F200A0070696A61200D00006D
:00000001FF
